S012000050726F6A656B745F4D502E7372656337
S11300000C9434000C9449000C9449000C9449005D
S11300100C9449000C9449000C9449000C94490038
S11300200C9449000C9449000C9449000C94490028
S11300300C9449000C9449000C9449000C94490018
S11300400C9449000C9449000C9449000C94490008
S11300500C9449000C9449000C9449000C944900F8
S11300600C9449000C94490011241FBECFEFD8E032
S1130070DEBFCDBF11E0A0E0B1E0E8E9F5E002C0E9
S113008005900D92A031B107D9F70E944D020C944E
S1130090CA020C9400001F93CF93DF9300D000D0CA
S11300A01F92CDB7DEB7FC019E012F5F3F4F85E065
S11300B0D9011D928A95E9F78AB180648AB99BB106
S11300C090649BB9BFEF20E782E0B15020408040AC
S11300D0E1F700C000009BB19F7B9BB9AFE9BCE88E
S11300E01197F1F700C000009BB190649BB99AB1DD
S11300F09F7B9AB9BAE6BA95F1F700C04E9961C0F0
S113010025ED2A95F1F700004E9B5DC085ED8A959B
S1130110F1F7000010E034C02F5F3F4F293C310558
S113012018F053C020E030E04E9BF6CFA0E5AA952E
S1130130F1F74E9B0CC047E050E0491B510921E008
S113014030E002C0220F331F4A95E2F7822B20E0F1
S113015030E005C02F5F3F4F293C3105C0F54E9973
S1130160F9CF9F5F02C080E090E09830D8F221E0A0
S113017030E02C0F3D1F210F311DD9018C931F5FDF
S1130180153088F38AB180648AB98BB180648BB9E5
S1130190BFEF20E782E0B15020408040E1F700C08B
S11301A0000089819A813B812C81890F830F820F02
S11301B09D8189130EC030838981DB018C9380E09B
S11301C009C08FEF07C08FEF05C08FEF03C08FEF1B
S11301D001C08FEF0F900F900F900F900F90DF9151
S11301E0CF911F9108950E944B00089597B1986094
S11301F097B997B1946097B997B1926097B997B14D
S1130200916097B995B1946095B9982F92959F7024
S113021090FF04C028B1216028B903C028B12E7F03
S113022028B991FF04C028B1226028B903C028B1BD
S11302302D7F28B992FF04C028B1246028B903C0D7
S113024028B12B7F28B9987021F098B1986098B99B
S113025003C098B1977F98B995B19B7F95B995B133
S1130260946095B980FF04C098B1916098B903C0B7
S113027098B19E7F98B981FF04C098B1926098B9F3
S113028003C098B19D7F98B982FF04C098B194606F
S113029098B903C098B19B7F98B983FF04C088B113
S11302A0886088B903C088B1877F88B985B18B7F9E
S11302B085B98FEE90E00197F1F700C00000089532
S11302C095B19E7F95B90E94F600089595B191600D
S11302D095B90E94F600089590E8980F983008F4B4
S11302E087700E9466010895CF93DF93FC0103C0D9
S11302F00E946C01FE01EF01219680818111F8CFEB
S1130300DF91CF910895CF93DF93CDB7DEB7619797
S11303100FB6F894DEBF0FBECDBF4AE0BE016F5FDB
S11303207F4F0E9495020E94740161960FB6F89463
S1130330DEBF0FBECDBFDF91CF910895813009F4A8
S113034080E4860F80580E946001089581E00E9435
S1130350600187E496E20197F1F700C00000089578
S113036083E00E94600187E496E20197F1F700C000
S11303700000089587B1886087B987B1846087B920
S113038087B1826087B987B1816087B984B18160A0
S113039084B984B1846084B985B1816085B985B13B
S11303A0846085B98FE295E70197F1F700C00000FA
S11303B085B18B7F85B985B18E7F85B985B1846020
S11303C085B988B1816088B988B1826088B988B1FB
S11303D08B7F88B988B1877F88B985B18B7F85B9D0
S11303E087E090E20197F1F700C0000085B18460D6
S11303F085B988B1816088B988B1826088B988B1CB
S11304008B7F88B988B1877F88B985B18B7F85B99F
S113041087EC90E00197F1F700C0000085B184609B
S113042085B988B1816088B988B1826088B988B19A
S11304308B7F88B988B1877F88B985B18B7F85B96F
S113044087EC90E00197F1F700C0000085B184606B
S113045085B988B18E7F88B988B1826088B988B13E
S11304608B7F88B988B1877F88B985B18B7F85B93F
S113047087EC90E00197F1F700C0000088E20E9449
S1130480600188E00E9460018CE00E94600186E0C7
S11304900E9460010E94A6010895CF93DF9300D0CB
S11304A0CDB7DEB787B1806287B988B1806288B979
S11304B02FEF89E698E1215080409040E1F700C099
S11304C000000E94BA0119821A82BE016E5F7F4F3A
S11304D0CE0101960E94F3008F3FA9F00E94A6016D
S11304E00E94B0018981082E000C990B0E9483019F
S11304F060E081E00E949E018A81082E000C990B25
S11305000E94830108C00E94A6010E94B00180E0FD
S113051091E00E9474012FEF84E39CE0215080401D
S11305209040E1F700C00000D0CFBB274A3031F43F
S1130530992322F4BDE2909581959F4F0C94A102DA
S1130540BB27FB015527AA27880F991FAA1FA417A9
S113055010F0A41B83955051B9F7A05DAA3308F09D
S1130560A95DA193009779F7B111B1931192CB01D1
S11305700C94BA02DC01FC01672F71917723E1F737
S1130580329704C07C916D9370836291AE17BF075C
S10B0590C8F30895F894FFCFAD
S11305984552524F5220435A554A4E494B41000046
S9030000FC
